{
  "contractName": "MinterRole",
  "abi": [
    {
      "inputs": [],
      "stateMutability": "nonpayable",
      "type": "constructor"
    },
    {
      "anonymous": false,
      "inputs": [
        {
          "indexed": true,
          "internalType": "address",
          "name": "account",
          "type": "address"
        }
      ],
      "name": "MinterAdded",
      "type": "event"
    },
    {
      "anonymous": false,
      "inputs": [
        {
          "indexed": true,
          "internalType": "address",
          "name": "account",
          "type": "address"
        }
      ],
      "name": "MinterRemoved",
      "type": "event"
    },
    {
      "inputs": [
        {
          "internalType": "address",
          "name": "account",
          "type": "address"
        }
      ],
      "name": "isMinter",
      "outputs": [
        {
          "internalType": "bool",
          "name": "",
          "type": "bool"
        }
      ],
      "stateMutability": "view",
      "type": "function"
    },
    {
      "inputs": [
        {
          "internalType": "address",
          "name": "account",
          "type": "address"
        }
      ],
      "name": "addMinter",
      "outputs": [],
      "stateMutability": "nonpayable",
      "type": "function"
    },
    {
      "inputs": [],
      "name": "renounceMinter",
      "outputs": [],
      "stateMutability": "nonpayable",
      "type": "function"
    }
  ],
  "bytecode": "0x608060405234801561001057600080fd5b5061002d61002261003260201b60201c565b61003a60201b60201c565b61015d565b600033905090565b600073__Roles_________________________________631ead94269091836040518363ffffffff1660e01b8152600401610076929190610102565b60006040518083038186803b15801561008e57600080fd5b505af41580156100a2573d6000803e3d6000fd5b505050508073ffffffffffffffffffffffffffffffffffffffff167f6ae172837ea30b801fbfcdd4108aa1d5bf8ff775444fd70256b44e6bf3dfc3f660405160405180910390a250565b6100f58161012b565b82525050565b8082525050565b600060408201905061011760008301856100fb565b61012460208301846100ec565b9392505050565b60006101368261013d565b9050919050565b600073ffffffffffffffffffffffffffffffffffffffff82169050919050565b6106ab8061016c6000396000f3fe608060405234801561001057600080fd5b50600436106100415760003560e01c8063983b2d56146100465780639865027514610062578063aa271e1a1461006c575b600080fd5b610060600480360381019061005b91906103be565b61009c565b005b61006a6100f7565b005b610086600480360381019061008191906103be565b610109565b6040516100939190610479565b60405180910390f35b6100ac6100a7610126565b610109565b6100eb576040517f08c379a00000000000000000000000000000000000000000000000000000000081526004016100e290610494565b60405180910390fd5b6100f48161012e565b50565b610107610102610126565b6101e0565b565b600061011f82600061023a90919063ffffffff16565b9050919050565b600033905090565b600073__Roles_________________________________631ead94269091836040518363ffffffff1660e01b815260040161016a9291906104f4565b60006040518083038186803b15801561018257600080fd5b505af4158015610196573d6000803e3d6000fd5b505050508073ffffffffffffffffffffffffffffffffffffffff167f6ae172837ea30b801fbfcdd4108aa1d5bf8ff775444fd70256b44e6bf3dfc3f660405160405180910390a250565b6101f481600061030290919063ffffffff16565b8073ffffffffffffffffffffffffffffffffffffffff167fe94479a9f7e1952cc78f2d6baab678adc1b772d936c6583def489e524cb6669260405160405180910390a250565b60008073ffffffffffffffffffffffffffffffffffffffff168273ffffffffffffffffffffffffffffffffffffffff1614156102ab576040517f08c379a00000000000000000000000000000000000000000000000000000000081526004016102a2906104d4565b60405180910390fd5b8260000160008373ffffffffffffffffffffffffffffffffffffffff1673ffffffffffffffffffffffffffffffffffffffff16815260200190815260200160002060009054906101000a900460ff16905092915050565b61030c828261023a565b61034b576040517f08c379a0000000000000000000000000000000000000000000000000000000008152600401610342906104b4565b60405180910390fd5b60008260000160008373ffffffffffffffffffffffffffffffffffffffff1673ffffffffffffffffffffffffffffffffffffffff16815260200190815260200160002060006101000a81548160ff0219169083151502179055505050565b6000813590506103b88161065e565b92915050565b6000602082840312156103d4576103d361056c565b5b60006103e2848285016103a9565b91505092915050565b6103f48161052e565b82525050565b61040381610540565b82525050565b600061041660308361051d565b915061042182610571565b604082019050919050565b600061043960218361051d565b9150610444826105c0565b604082019050919050565b600061045c60228361051d565b91506104678261060f565b604082019050919050565b8082525050565b600060208201905061048e60008301846103fa565b92915050565b600060208201905081810360008301526104ad81610409565b9050919050565b600060208201905081810360008301526104cd8161042c565b9050919050565b600060208201905081810360008301526104ed8161044f565b9050919050565b60006040820190506105096000830185610472565b61051660208301846103eb565b9392505050565b600082825260208201905092915050565b60006105398261054c565b9050919050565b60008115159050919050565b600073ffffffffffffffffffffffffffffffffffffffff82169050919050565b600080fd5b7f4d696e746572526f6c653a2063616c6c657220646f6573206e6f74206861766560008201527f20746865204d696e74657220726f6c6500000000000000000000000000000000602082015250565b7f526f6c65733a206163636f756e7420646f6573206e6f74206861766520726f6c60008201527f6500000000000000000000000000000000000000000000000000000000000000602082015250565b7f526f6c65733a206163636f756e7420697320746865207a65726f20616464726560008201527f7373000000000000000000000000000000000000000000000000000000000000602082015250565b6106678161052e565b811461067257600080fd5b5056fea26469706673582212207a4de9fc0708605f15a3b09e7d3161197a4e38fd84133c5321830dbae4467b2c64736f6c63430008050033",
  "deployedBytecode": "0x608060405234801561001057600080fd5b50600436106100415760003560e01c8063983b2d56146100465780639865027514610062578063aa271e1a1461006c575b600080fd5b610060600480360381019061005b91906103be565b61009c565b005b61006a6100f7565b005b610086600480360381019061008191906103be565b610109565b6040516100939190610479565b60405180910390f35b6100ac6100a7610126565b610109565b6100eb576040517f08c379a00000000000000000000000000000000000000000000000000000000081526004016100e290610494565b60405180910390fd5b6100f48161012e565b50565b610107610102610126565b6101e0565b565b600061011f82600061023a90919063ffffffff16565b9050919050565b600033905090565b600073__Roles_________________________________631ead94269091836040518363ffffffff1660e01b815260040161016a9291906104f4565b60006040518083038186803b15801561018257600080fd5b505af4158015610196573d6000803e3d6000fd5b505050508073ffffffffffffffffffffffffffffffffffffffff167f6ae172837ea30b801fbfcdd4108aa1d5bf8ff775444fd70256b44e6bf3dfc3f660405160405180910390a250565b6101f481600061030290919063ffffffff16565b8073ffffffffffffffffffffffffffffffffffffffff167fe94479a9f7e1952cc78f2d6baab678adc1b772d936c6583def489e524cb6669260405160405180910390a250565b60008073ffffffffffffffffffffffffffffffffffffffff168273ffffffffffffffffffffffffffffffffffffffff1614156102ab576040517f08c379a00000000000000000000000000000000000000000000000000000000081526004016102a2906104d4565b60405180910390fd5b8260000160008373ffffffffffffffffffffffffffffffffffffffff1673ffffffffffffffffffffffffffffffffffffffff16815260200190815260200160002060009054906101000a900460ff16905092915050565b61030c828261023a565b61034b576040517f08c379a0000000000000000000000000000000000000000000000000000000008152600401610342906104b4565b60405180910390fd5b60008260000160008373ffffffffffffffffffffffffffffffffffffffff1673ffffffffffffffffffffffffffffffffffffffff16815260200190815260200160002060006101000a81548160ff0219169083151502179055505050565b6000813590506103b88161065e565b92915050565b6000602082840312156103d4576103d361056c565b5b60006103e2848285016103a9565b91505092915050565b6103f48161052e565b82525050565b61040381610540565b82525050565b600061041660308361051d565b915061042182610571565b604082019050919050565b600061043960218361051d565b9150610444826105c0565b604082019050919050565b600061045c60228361051d565b91506104678261060f565b604082019050919050565b8082525050565b600060208201905061048e60008301846103fa565b92915050565b600060208201905081810360008301526104ad81610409565b9050919050565b600060208201905081810360008301526104cd8161042c565b9050919050565b600060208201905081810360008301526104ed8161044f565b9050919050565b60006040820190506105096000830185610472565b61051660208301846103eb565b9392505050565b600082825260208201905092915050565b60006105398261054c565b9050919050565b60008115159050919050565b600073ffffffffffffffffffffffffffffffffffffffff82169050919050565b600080fd5b7f4d696e746572526f6c653a2063616c6c657220646f6573206e6f74206861766560008201527f20746865204d696e74657220726f6c6500000000000000000000000000000000602082015250565b7f526f6c65733a206163636f756e7420646f6573206e6f74206861766520726f6c60008201527f6500000000000000000000000000000000000000000000000000000000000000602082015250565b7f526f6c65733a206163636f756e7420697320746865207a65726f20616464726560008201527f7373000000000000000000000000000000000000000000000000000000000000602082015250565b6106678161052e565b811461067257600080fd5b5056fea26469706673582212207a4de9fc0708605f15a3b09e7d3161197a4e38fd84133c5321830dbae4467b2c64736f6c63430008050033",
  "immutableReferences": {},
  "source": "// SPDX-License-Identifier: MIT\r\npragma solidity ^0.8.0;\r\n\r\nimport \"@openzeppelin/contracts/utils/Context.sol\";\r\nimport \"./Roles.sol\";\r\n\r\ncontract MinterRole is Context {\r\n    using Roles for Roles.Role;\r\n\r\n    event MinterAdded(address indexed account);\r\n    event MinterRemoved(address indexed account);\r\n\r\n    Roles.Role private _minters;\r\n\r\n    constructor () {\r\n        _addMinter(_msgSender());\r\n    }\r\n\r\n    modifier onlyMinter() {\r\n        require(isMinter(_msgSender()), \"MinterRole: caller does not have the Minter role\");\r\n        _;\r\n    }\r\n\r\n    function isMinter(address account) public view returns (bool) {\r\n        return _minters.has(account);\r\n    }\r\n\r\n    function addMinter(address account) public onlyMinter {\r\n        _addMinter(account);\r\n    }\r\n\r\n    function renounceMinter() public {\r\n        _removeMinter(_msgSender());\r\n    }\r\n\r\n    function _addMinter(address account) internal {\r\n        _minters.add(account);\r\n        emit MinterAdded(account);\r\n    }\r\n\r\n    function _removeMinter(address account) internal {\r\n        _minters.remove(account);\r\n        emit MinterRemoved(account);\r\n    }\r\n}",
  "sourcePath": "C:/Users/naresh panchal/blockC/mintable-token/contracts/MinterRole.sol",
  "compiler": {
    "name": "solc",
    "version": "0.8.5+commit.a4f2e591.Emscripten.clang"
  },
  "schemaVersion": "3.4.1",
  "updatedAt": "2021-06-18T18:12:43.601Z",
  "devdoc": {
    "kind": "dev",
    "methods": {},
    "version": 1
  },
  "userdoc": {
    "kind": "user",
    "methods": {},
    "version": 1
  }
}